:020000040800F2
:10000000781B002045010008431000080F0200087B
:1000100041100008430300089D1300080000000081
:100020000000000000000000000000004510000873
:100030004503000800000000970100084710000871
:100040005F0100085F0100085F0100085F01000810
:100050005F0100085F0100085F0100085F01000800
:100060005F0100085F0100085F0100085F010008F0
:100070005F0100085F0100085F0100085F010008E0
:100080005F0100085F0100085F0100085F010008D0
:100090005F0100085F0100085F0100085F010008C0
:1000A0005F0100085F0100085F0100085F010008B0
:1000B0005F0100085F0100085F0100085F010008A0
:1000C0005F0100085F0100085F0100085F01000890
:1000D0005F010008911300085F0100085F0100083C
:1000E0005F0100085F0100085F0100085F01000870
:1000F0005F0100085F0100085F0100085F01000860
:100100005F0100085F0100085F0100085F0100084F
:100110005F0100085F0100085F0100085F0100083F
:100120005F0100085F0100085F0100085F0100082F
:10013000DFF80CD000F0EEF8004800473903000863
:10014000781B00200648804706480047FEE7FEE788
:10015000FEE7FEE7FEE7FEE7FEE7FEE7FEE7FEE777
:100160000511000831010008EFF3108072B67047E6
:1001700080F310887047334A1368012B04D04FF086
:1001800001031360304A1060304A116030484FF06C
:10019000805101607047EFF3108272B62948016800
:1001A00091B14FF0000101602748016829B1EFF3D8
:1001B000098121E9F00F0068016024490968096894
:1001C000B1E8F00F81F3098882F310884EF0040E35
:1001D00070471E4908601C494FF00000086019492B
:1001E0004FF0010008601B484FF47F01D0F8002059
:1001F00041EA0201016016484FF080510160164843
:100200000068006880F3088861B662B670471EF027
:10021000040F0CBFEFF30880EFF3098020E9F00F23
:1002200040F804ED1EF0040F0CBF80F3088880F343
:10023000098800B502F050FB5DF804EB4EF0040EA7
:1002400070470000A8000020A0000020A4000020AB
:1002500004ED00E020ED00E008ED00E040EA0103DD
:100260009B0703D009E008C9121F08C0042AFAD26C
:1002700003E011F8013B00F8013B521EF9D2704730
:10028000D2B201E000F8012B491EFBD270470022D8
:10029000F6E710B513460A4604461946FFF7F0FF85
:1002A000204610BD421E12F8013F002BFBD111F871
:1002B000013B02F8013B002BF9D1704710B5044611
:1002C00004E00B7800F8013B03B1491C521EF8D240
:1002D000204610BD421C10F8011B0029FBD1801ADA
:1002E0007047034611F8012B00F8012B002AF9D1C1
:1002F0001846704730B505460020034600E05B1CF9
:10030000934205D2EC5CC85C201A01D1002CF6D1D6
:1003100030BD0000064C074D06E0E06840F00103E8
:1003200094E8070098471034AC42F6D3FFF704FF77
:10033000C03D0008E03D000810B503F05BFB002065
:1003400010BDFEE7704770472DE9F05F90F821106F
:100350000024022903D004218163012485E001687F
:100360000A6822F00E020A6001680A6822F001029F
:100370000A603F4E3E4FB215DFF8F4C0DFF8F09050
:10038000DFF8ECA0DFF8E8B0DFF8E4E00168783FE0
:1003900013011502ACF1640CA9F15009AAF13C0A51
:1003A000ABF1280BAEF1140E4FF48018B14227D9EF
:1003B000B9420ED0614512D049451DD0514518D0E3
:1003C000594518D0714501D1424615E0294EB14238
:1003D00001D1012210E0274E1436B14201D1102282
:1003E0000AE0244E2836B14206D0224A3C329142DD
:1003F00001D11A4600E02A461E49091F0A602BE077
:10040000B94213D0614517D0494522D051451DD07E
:1004100059451DD0714501D142461AE0B14202D181
:100420004FF0807215E0134EB14201D1012210E06D
:10043000104E1436B14201D110220AE00D4E28367A
:10044000B14206D00B4A3C32914201D11A4600E03B
:100450002A46074980394A60012180F8211000218D
:1004600080F82010416B01B188472046BDE8F09F1D
:1004700080000240080402402DE9F84FDFF8C891DF
:10048000002409F1040A0AF1040B23460F270BF19B
:10049000040ED1E00125A54006EA0502AA4276D164
:1004A000DFF8A8C14E68A6EB0C0866452BD00DDC22
:1004B000032E34D005DC36B3012E19D0022E2FD1F5
:1004C0001BE0112E16D0122E2AD119E0B8F5881F84
:1004D00019D006DCB8F5803F15D0B8F5801F1FD1C4
:1004E00011E0B8F5001F0ED0B8F5041F18D10AE0CE
:1004F000CB6815E0CB681B1D12E0CB6808330FE01A
:10050000CB680C330CE08B682BB1012B4FF0080348
:1005100003D0456104E0042302E0056100E000230C
:10052000FF2A01D8064601E000F104064FEA8405DF
:1005300001D9A5F12005D6F8008007FA05FC28EAC4
:100540000C0803FA05F548EA0508C6F800804D686E
:10055000ED0070D53E4DAE6946F00106AE61AD6965
:1005600024F0030605F0010500953A4D06EB050C55
:10057000DCF80850A607360F07FA06F825EA080542
:10058000DFF8D480404503D14FF0000825E052E069
:10059000DFF8C880404502D14FF001081DE0DFF8C8
:1005A000C080404502D14FF0020816E0DFF8B48069
:1005B000404502D14FF003080FE0DFF8AC80404522
:1005C00002D14FF0040808E0DFF8A080404502D1D6
:1005D0004FF0050801E04FF0060808FA06F848EA6F
:1005E0000508CCF808804D68D9F80060ED034D4649
:1005F00001D5164300E096432E604D68DAF800609E
:10060000AD03554601D5164300E096432E604D6874
:10061000DBF80060ED025D4601D5164300E096432D
:100620002E604D68DEF80060AD02754601D51643B8
:1006300000E096432E60641C0A681646E2407FF490
:1006400029AFBDE8F88F0000000401400000111040
:10065000001002400000014000080140000C014071
:10066000001001400014014000180140001C01402E
:100670000AB1016170470904FBE700000148806886
:100680007047000004000020074810B5016841F0E1
:1006900010010160032000F075F8002000F006F85A
:1006A00000F024F8002010BD0020024070B50D4D70
:1006B00004464FF47A712878B1FBF0F00A490968D2
:1006C000B1FBF0F000F0ECFA48B9102C07D2002290
:1006D0002146501E00F036F800206C6070BD0120ED
:1006E00070BD000004000020100000200C4808B578
:1006F000816941F001018161816901F0010100918D
:10070000C16941F08051C161C06900F08050009022
:100710000448416821F0E06141F00071416008BD8A
:100720000010024000000140002809DB00F01F0219
:10073000012191404009800000F1E020C0F8001143
:1007400070470000F0B40E4B1B680C46C3F3022345
:10075000C3F10705042D00D90425191D072901D26D
:10076000002300E0DB1E012606FA05F1491E2140A8
:1007700099409E40761E16403143F0BC00F00FBEFB
:100780000CED00E0064900F0070208684FF6FF0391
:10079000184040EA0220034A1043086070470000F6
:1007A0000CED00E00000FA052DE9F0470F460500CA
:1007B00061D0434E306800F00700B84209D230687B
:1007C00020F0070038433060306800F00700B8427E
:1007D00051D128683B4C810712D5400703D560688A
:1007E00040F4E06060602878000703D5606840F45A
:1007F000605060606068A96820F0F00008436060A5
:100800002878C00728D06868012810D021680228FD
:1008100010D0890700292EDA616821F00301014315
:100820006160FFF72BFF804641F288390DE02168B7
:100830008903EFE78901EDE7FFF720FFA0EB08014F
:10084000494502D90320BDE8F0876068696800F077
:100850000C00B0EB810FEFD1306800F00700B84218
:100860000BD9306820F0070038433060306800F062
:100870000700B84201D00120E5E72878400705D5F8
:100880006068E96820F4E060084360602878000749
:1008900006D56068296920F4605040EAC1006060B4
:1008A00000F038F86168084AC1F30311515CC84090
:1008B0000649086006480068FFF7F8FE0020C2E716
:1008C0000020024000100240223B000810000020DF
:1008D000080000200448054900684968044AC1F33B
:1008E0000221515CC84070471000002000100240F7
:1008F000323B00080448054900684968044AC1F3CE
:10090000C221515CC8407047100000200010024016
:10091000323B000812A185B00FC98DE80F0014A06A
:10092000144A006804905168134801F00C03042B2A
:1009300010D0082B0ED1C1F38343C9031DF8030067
:100940000AD5516804AAC1F34041515C0A4A504398
:10095000B0FBF1F005B0704708494843FAE70000E2
:1009600002030405060708090A0B0C0D0E0F1010F0
:10097000010200000010024000127A0000093D0050
:100980002DE9F84F040070D02078C04DC00749D041
:100990006868C0F38100012807D06868C0F381004F
:1009A000022809D16868C00306D52868800339D5B4
:1009B00060680028E7D035E06068B0F5803F0BD074
:1009C00010B1B0F5A02F11D0286820F48030286035
:1009D000286820F4802002E0286840F480302860F5
:1009E000606890B1FFF74AFE06460AE0286840F4C6
:1009F00080202860F0E700BFFFF740FE801B6428DE
:100A000073D828688003F7D50CE0FFF737FE064659
:100A100005E000BFFFF732FE801B6428F0D828688D
:100A20008003F7D420789A4E80074FF001094FF0E9
:100A3000000839D5686810F00C0F07D06868C0F35B
:100A40008100022809D16868C00306D4286880079D
:100A500014D52069012808D110E02069B0B1C6F88A
:100A60000090FFF70BFE074605E00AE1FFF706FEE0
:100A7000C01B0228C4D828688007F7D52868616998
:100A800020F0F80040EAC10028600DE0C6F80080C0
:100A9000FFF7F4FD074604E0FFF7F0FDC01B022856
:100AA00023D828688007F7D4207800072CD5794808
:100AB000A169D9B1C0F80090FFF7E0FD074604E056
:100AC000FFF7DCFDC01B02280FD8686A8007F7D546
:100AD00071484FF4FA510068B0FBF1F0009000BF8C
:100AE0000098411E0091FAD20EE080E0C0F800802C
:100AF000FFF7C4FD074604E0FFF7C0FDC01B022856
:100B000075D8686A8007F7D42078400760D5E8690F
:100B10000027C00008D4E86940F08050E861E86927
:100B2000012700F0805000905C480168C90513D48B
:100B30000168834641F480710160FFF79FFD8246A2
:100B400006E000BFFFF79AFDA0EB0A0064284ED82C
:100B5000DBF80000C005F5D5E06801280AD008B12F
:100B6000052813D0286A20F001002862286A20F0A6
:100B7000040002E0286A40F001002862E06841F2C7
:100B8000883B98B1FFF77AFD82460BE0286A40F077
:100B900004002862EEE700BFFFF770FDA0EB0A013A
:100BA00059455AD8286A8007F6D50CE0FFF766FD4C
:100BB000824605E0FFF762FDA0EB0A0159454CD8DB
:100BC000286A8007F6D41FB1E86920F08050E861F8
:100BD000E06988B36968C1F38101022944D0022821
:100BE000C6F8608004D0FFF749FD044638E034E0E1
:100BF000FFF744FD074604E0FFF740FDC01B022855
:100C00002BD828688001F7D4206AB0F5803F05D141
:100C10006868A16820F4003008436860D4E90801DE
:100C20000843696821F4741108436860C6F860904D
:100C3000FFF724FD044606E025E000BFFFF71EFD98
:100C4000001B022809D828688001F7D51BE000BFE7
:100C5000FFF714FD001B022802D90320BDE8F88F1E
:100C600028688001F4D40EE00128F7D06868226A71
:100C700000F48031914204D1616A00F4701088421E
:100C800001D00120EAE70020E8E700000010024060
:100C900000004242800442421000002000700040E8
:100CA00010B5401EB0F1807F01D3012010BD4FF080
:100CB000E02460610F21601700F071FB0020A0614B
:100CC00007202061002010BD7047000070B5026849
:100CD00004461068D168536910F00F0F50D003F02C
:100CE000010501F4907635435DD0C20705D0CA05F1
:100CF00003D5E26B42F00102E263420705D5DA0751
:100D000003D0E26B42F00202E263820705D5DA0704
:100D100003D0E26B42F00402E263020705D5DA0772
:100D200003D0E26B42F00802E263E26B002A33D0A8
:100D3000800604D5880602D5204600F01DFA2068FA
:100D40004069E16BC0F38010090700D428B3204646
:100D500000F004FA2068416949061AD5416921F07A
:100D600040014161606BA0B11B494163606BFFF7BB
:100D7000EBFA002810D0606B416BBDE8704008476B
:100D8000830610D58B060ED52046BDE8704000F0D6
:100D9000F3B92046FFF798FF70BD2046FFF794FF98
:100DA0000020E06370BD030606D50B0604D520467F
:100DB000BDE8704000F088BA4006F3D54806F1D58A
:100DC000D168204621F04001D160202184F83910FB
:100DD00000F0D4F870BD00004D11000870B504009B
:100DE00004D094F83900002510B106E0012070BD50
:100DF00084F83850204600F023F8242084F8390085
:100E00002068C16821F40051C160204600F000FA5A
:100E10002068016921F4904101612068416921F055
:100E20002A0141612068C16841F40051C160E56355
:100E3000202084F8390084F83A00002070BD0000BA
:100E400030B585B0002400940194029403940068A6
:100E5000184988422CD11848816941F48041816148
:100E6000816901F480410491816941F0040181614B
:100E70008069124D00F0040004904FF4007000905F
:100E8000022001900320039069462846FFF7F4FAF8
:100E90002815CDE90004694628460294FFF7ECFACC
:100EA000002211462520FFF74DFC2520FFF73CFCD2
:100EB00005B030BD0038014000100240000801407C
:100EC00070472DE9F843044690F839001F4616464E
:100ED0000D46202850D1A5B19EB194F838000128C4
:100EE0004AD0012084F838004FF00008C4F83C8054
:100EF000212084F83900FFF7C1FBA6848146E684EF
:100F000026E00120BDE8F883E08C401EE084A06864
:100F10004B46B0F5805F4FF000024FF08001204655
:100F2000009703D000F001FAE8B90DE000F0FDF9F8
:100F3000C8B928882168C0F308004860206908B152
:100F40006D1C05E0AD1C03E0216815F8010B48603D
:100F5000E08C0028D8D14B46002240212046009743
:100F600000F0E3F908B10320CCE7202084F8390031
:100F700084F838800020C5E70220C3E770470000EE
:100F80002DE9F04186B000241C480094019402949D
:100F90000394816941F004018161816901F00401D8
:100FA0000491816941F0200181618069144F00F052
:100FB00020004FF480750490002229463846FFF740
:100FC00057FBDFF84080012204214046FFF750FB29
:100FD0000095022601250396CDE90154694638465D
:100FE000FFF74AFA0420CDE90005CDE9024669463B
:100FF0004046FFF741FA06B0BDE8F081001002401C
:1010000000080140001401400C4810B50A49016075
:101010004FF4E1314160002181600C22C160C0E9E0
:1010200004128161C161FFF7D9FE002803D0BDE839
:101030001040FFF788B910BD003801409C03002024
:10104000FEE77047704710B501F060FD02F0A8FAA6
:10105000BDE8104001F068BD10B590B02821684689
:10106000FFF715F914210AA8FFF711F902200090E3
:101070000120049010200024059007946846FFF793
:101080007FFC0F20CDE90A040C940D9400210AA8DE
:101090000E94FFF789FB10B010BD0000144910B585
:1010A0004868144A10F00C03134803D0042B01D0F5
:1010B000082B09D002604968104AC1F30311515C42
:1010C0000268CA40026010BD4A684B6802F47012A0
:1010D0004FF0020413F4803F04EB924202D04B68BD
:1010E0009B0301D5064B00E0024B5A43E2E70000A8
:1010F0000010024000127A0010000020223B00087D
:1011000000093D000D48016841F00101016041689E
:101110000B4A1140416001680A4A114001600168B0
:1011200021F480210160416821F4FE0141604FF407
:101130001F0181600449C00308607047001002402D
:101140000000FFF8FFFFF6FE08ED00E010B5406A72
:101150000021C185C184FFF7B7FD10BD0168CA68D1
:1011600022F49072CA6001684A6922F001024A6161
:10117000202180F83A10704710B590F83A102229D3
:1011800001D0022010BD8168B1F5805F11D00169E6
:10119000002901681FD0496801F07F03816A4A1C59
:1011A00082620B70C18D491E0904090CC18518D0DB
:1011B0002BE00269816A002A0268526805D0D2B227
:1011C0000A80816A491C8162ECE7C2F308020A8046
:1011D000816A891CF7E74A68816A4B1C83620A703E
:1011E000E0E70168CA6822F02002CA600168CA68A4
:1011F00022F48072CA6001684A6922F001024A61E1
:10120000202180F83A10FFF75BFE002010BD00009F
:101210002DE9F041044600680169E26821F440517B
:10122000114301612169A06808436169084321688D
:10123000CA6841F20C639A430243CA60206841695C
:10124000A26921F44071114341611E49206864255F
:101250003226884202D1FFF74DFB01E0FFF73AFB4F
:1012600000EBC00101EB001160686FF0180780000F
:10127000B1FBF0F2B2FBF5F2B1FBF0F37A4303EB12
:101280008202B1FBF0F306EB0212B2FBF5F2B3FB04
:10129000F5F302F0F00202EB0312B1FBF0F3B1FB45
:1012A000F0F0B0FBF5F0784303EB800006EB0010A4
:1012B000B0FBF5F0216800F00F0010448860BDE835
:1012C000F08100000038014090F83910212901D048
:1012D000022070478168B1F5805F016A0BD04A1C1B
:1012E0000262026809785160C18C491E0904090C28
:1012F000C1840ED017E009880268C1F3080151606B
:1013000001690029016A02D0491C0162ECE7891CCD
:10131000FBE70168CA6822F08002CA600068C16801
:1013200041F04001C160002070472DE9F04198462E
:1013300017460E460446069D1DE0681C1BD02DB1C5
:10134000FFF79CF9A0EB0800A84214D92068C168F7
:1013500021F4D071C1602068416921F0010141612F
:10136000202084F8390084F83A00002084F83800FE
:101370000320BDE8F0812068006836EA000004D050
:101380000020B842D9D00020F3E70120F9E700009F
:101390000148FFF79BBC00009C030020FEE7090703
:1013A000090E002804DB00F1E02080F800147047EB
:1013B00000F00F0000F1E02080F8141D70470000DD
:1013C000002806D00E4910F0FF0F03D0C0B2085C11
:1013D000401C704710F47F4F04D0C0F30720085C16
:1013E0000930704710F47F0F04D0C0F30740085C49
:1013F0001130704701EB1060007819307047000021
:10140000CC3B000802E008C8121F08C1002AFAD12C
:1014100070477047002001E001C1121F002AFBD174
:101420007047000003480168814201D001207047E5
:1014300000207047880000202DE9F04F89B09246C7
:101440008B460646002400E0641C305D202803D053
:10145000092801D05C45F7D34FF0FF387CB3194819
:1014600004F10609184F056811E0062217A1286843
:10147000FEF740FF50B9286822463146801DFEF72E
:1014800039FF18B9296811F8090020B10835386802
:101490008542EAD314E06C688CB120216846FEF7DF
:1014A000F6FE6A465946304600F0A6FF38B1694656
:1014B000A047CAF80000002009B0BDE8F08FFFE7A0
:1014C0004046F9E714000020180000205F5F636DBC
:1014D000645F00002DE9FC411F460446DDE9083148
:1014E000DDE90A65143040600060C4E90827C4E9FA
:1014F0000A310A46232118461C3401F0FDFBD4E9C9
:1015000003014218D4E90101104B121F01F0E2FA65
:1015100044F81A0B002004F801690D4A04F8036B23
:10152000E4E8020544F8105901C404F83C0B01C476
:1015300044F87409009023460190194604F14400D0
:1015400002F0A0F80020BDE8FC81000099320008FC
:10155000DF34000810B5029C24F001044472C0E995
:1015600007120021C0E9093114304060006010BD4D
:10157000F0E905124A60D0E9001211604060006095
:101580007047000010B51BA001F0DCFA1C4C21785C
:101590001CA001F0D7FA2078C00702D01FA001F0EC
:1015A000D1FA2078800702D51FA001F0CBFA20786D
:1015B000400702D51FA001F0C5FA2078000702D528
:1015C00020A001F0BFFA2078C00602D520A001F0CB
:1015D000B9FA2078000607D509480F300168BDE840
:1015E00010401DA001F0AEBABDE810401EA001F0F1
:1015F000A9BA0000627573206661756C743A0A00BE
:1016000029ED00E05343425F434653525F42465345
:10161000523A307825303258200000004942555364
:101620004552522000000000505245434953455254
:1016300052200000494D50524543495345525220D3
:1016400000000000554E53544B45525220000000FC
:1016500053544B45525220005343422D3E42464183
:10166000523A253038580A000A00000010B500F040
:10167000FBFA002010BD10B500F0CCFB002010BD1F
:10168000104810B5416991F82110890703D40E491B
:101690000020087013E0016921B180220A48FEF79A
:1016A0000DFE0CE000F0A6FE08B108A100E009A1C3
:1016B0000548FEF716FE09A10348FEF7F3FD0248B0
:1016C00010BD000014000020DC0300206D736820B2
:1016D0000000000066696E73682000003E00000094
:1016E0000349496911F8212F60F341020A707047DC
:1016F00014000020014AC2E90001704714000020D4
:101700007CB516491648FFF7F5FF7821012000F057
:10171000BFFF144C6061D0B10A211520CDE9000152
:101720004FF400730022104910A001F090FD05460F
:1017300000231A460FA1606901F006FC0120FFF7A3
:10174000CFFF15B1284601F093FE00207CBD0BA011
:1017500001F0F8F94FF0FF307CBD0000C03D0008FB
:10176000503D000814000020951700087473686548
:101770006C6C000073687278000000006E6F206D62
:10178000656D6F727920666F72207368656C6C0A84
:1017900000000000984D686910F8211F41F0010118
:1017A0000170FFF76DFF01F0CDF9002601F05AF846
:1017B0000400FBD41B2C07D0686990F82010012985
:1017C00007D002290ED017E06969012081F82000B6
:1017D000ECE75B2C02D080F820600DE0022180F85D
:1017E0002010E3E780F82060412CDFD0422CDDD0D0
:1017F000442C38D0432C43D0002CD7D0FF2CD5D04C
:10180000092C4ED07F2C75D0082C73D00D2C70D0A5
:101810000A2CFCD0B0F87210502901D3A0F87260E5
:10182000B0F87430B0F872108B427DD2CA1A00F151
:10183000220123301944184401F044FA6869B0F8D1
:10184000741022300C54686990F82110C90706D032
:10185000B0F874102230014468A001F073F968698F
:10186000B0F87440A5E0B0F8740000289ED064A0E1
:1018700001F068F9686930F8741F491E018095E726
:10188000B0F87410B0F8722091428FD22230095C07
:101890005CA001F057F9696931F8740F401C0880A9
:1018A00084E7002403E056A001F04CF9641C686949
:1018B000B0F87400A042F6DC6C6953A0223401F049
:1018C00041F900F097FD012802D1204600F0D4FC38
:1018D000FFF7D6FE014622464CA001F033F96869B5
:1018E0002230FEF7F7FC696921F8720F48805DE746
:1018F00000E03DE0B0F87420002AC0D0B0F87210CB
:10190000521E491E89B293B2A0F87210A0F874302A
:10191000994224D9CA1A00F12301223019441844EB
:1019200001F0D0F9686900E049E0B0F872102230A7
:101930000E546869B0F874102230014435A001F0EB
:1019400001F96869B0F8744003E02DA001F0FAF8DD
:10195000641C6869B0F87200A04290DBF5E72FA024
:1019600001F0F0F86869B0F8721022300E541DE7EB
:1019700000F040FD01280DD1686990F82100C007F2
:1019800002D021A001F0DEF86869B0F872102230B0
:1019900000F0C8FCFFF774FE01F0D4F8686950212C
:1019A0002230FEF774FC686922E015A001F0CAF845
:1019B000641C6869B0F87200A042F6DC0AE02230CC
:1019C0000C54686990F82100C00703D021460DA08F
:1019D00001F0B8F86869B0F87210491C89B2A0F833
:1019E0007210B0F87420521CA0F874205029BED395
:1019F00020F8726F4680D9E614000020257300009D
:101A000008000000256300000A000000257325730C
:101A100000000000082573202008000008200800AE
:101A200010B5124C2068800702D511A001F08AF889
:101A30002068400011D50D48C01E007808B1FFF79E
:101A4000A1FD0A48001F007808B100F0A9FB074873
:101A5000801E008808B101F0F7FF2068002804DA32
:101A6000BDE8104008A001F06DB810BD2CED00E0FD
:101A70006661696C656420766563746F7220666563
:101A80007463680A0000000064656275672065760B
:101A9000656E740A0000000010B502A001F052F853
:101AA000002010BD48656C6C6F2052542D54687234
:101AB000656164210A000000124E134C4FF00008CB
:101AC0004FF480754FF001094FF47A7700222946D0
:101AD0003046FEF7CDFD84F800900CA001F032F8FE
:101AE000384601F079FC012229463046FEF7C0FD58
:101AF00084F8008008A001F025F8384601F06CFC5D
:101B0000E4E7000000080140000000206C6564313B
:101B1000206F6E0A000000006C656431206F6666FD
:101B20000A000000104E114C00274FF001084FF43E
:101B3000FA75002204213046FEF79AFD84F80180F0
:101B40000BA000F0FFFF284601F046FC0122042113
:101B50003046FEF78DFD677008A000F0F3FF2846C1
:101B600001F03AFCE5E7000000140140000000200D
:101B70006C656432206F6E0A000000006C65643290
:101B8000206F66660A00000070B50BA000F0DAFF57
:101B90000E480F4D04680AE002220EA12068FEF7ED
:101BA000A9FB18B10CA0216800F0CCFF083428680C
:101BB0008442F1D3002070BD2D2D46756E6374698B
:101BC0006F6E204C6973743A0A0000001400002004
:101BD000180000205F5F000025730A002DE9F04126
:101BE00004461E4617460D46084601F0F3F8001D50
:101BF0002060257200206760C4E90360BDE8F081C1
:101C00002DE9F0410D4600212961E96891B1297A59
:101C100081B12E6888B10446FEF7A6FA0146A4F108
:101C20000C002A7A007A20F08000904209D0084601
:101C3000FEF79EFA0020BDE8F0813446FEF794FAE4
:101C40000146686800272468B44201D1002404E0FA
:101C500010C0EA687F1CBA42F5D10846FEF788FA40
:101C600020462F61E7E7000010B5074C07A0E168A8
:101C700000F068FF0AA0216900F064FF6169BDE817
:101C800010400CA000F05EBF34000020746F74613F
:101C90006C206D656D6F72793A2025640A00000032
:101CA00075736564206D656D6F7279203A202564C7
:101CB0000A0000006D6178696D756D20616C6C6F54
:101CC0006361746564206D656D6F72793A20256477
:101CD0000A0000002DE9F04194B0002733A4082346
:101CE0000BAA022105A8FFF779FF082080460146CC
:101CF000224631A000F026FF404600F0E5FB35A06B
:101D000000F020FF05A93846FFF77AFF07460026B6
:101D100042E00BA850F826400C3CFEF725FA217A49
:101D20009DF81C2021F08001914202D0FEF720FA9C
:101D300031E0FEF71DFA04F11400616905468142A5
:101D40001ED000F02BFFA18BCDE900102346082206
:101D5000414626A000F0F6FE2C680BE0A4F1140129
:101D600026A000F0EFFE2068A84202D024A000F0D8
:101D7000E9FE2468AC42F1D115A000F0E3FE0AE0D0
:101D800000F00CFFA18BCDE900102346082241464C
:101D90001CA000F0D7FE761C0998B042B9DC002FD9
:101DA000B0D114B00020BDE8F081000073656D6112
:101DB00070686F7265000000252D2A2E7320762032
:101DC000202073757370656E642074687265616439
:101DD0000A000000202D2D2D202D2D2D2D2D2D2DF7
:101DE0002D2D2D2D2D2D2D0A00000000252D2A2E04
:101DF0002A7320253033642025643A0025730000BF
:101E00002F000000252D2A2E2A7320253033642030
:101E100025640A002DE9F041B4B000263CA4082353
:101E20002CAA012126A8FFF7D9FE082080460146EA
:101E30002246394800F086FE404600F045FB37A0B8
:101E400000F080FE26A93046FFF7DAFE06460025A0
:101E500054E02CA850F825400C3CFEF785F90746C5
:101E6000207A9DF8A01020F08000884203D03846E8
:101E7000FEF77EF941E07822214607A8FEF7EEF949
:101E80003846FEF775F994F835000090234608228D
:101E9000414632A000F056FE94F8340000F00F00E6
:101EA000012807D0022807D040B1042808D0032811
:101EB00008D00AE02CA006E02EA004E030A002E04A
:101EC00032A000E034A000F03DFEA06A014600E030
:101ED000401C0278232AFBD0E26A401A101A6423BD
:101EE0005843B0FBF2F3276B206CCDE90007E069A3
:101EF000081A81182BA000F025FE6D1C2A98A84214
:101F0000A7DC002E9ED134B00020BDE8F081000097
:101F10007468726561640000F83C0008202D2D2D66
:101F200020202D2D2D2D2D2D2D202D2D2D2D2D2D08
:101F30002D2D2D2D202D2D2D2D2D2D2D2D2D2D20EB
:101F4000202D2D2D2D2D2D20202D2D2D2D2D2D2DE8
:101F50002D2D2D202D2D2D0A00000000252D2A2E9F
:101F60002A73202533642000207265616479202063
:101F7000000000002073757370656E64000000003F
:101F800020696E69742020200000000020636C6FBF
:101F900073652020000000002072756E6E696E6708
:101FA0000000000020307825303878203078253047
:101FB000387820202020253032642525202020302C
:101FC000782530387820253033640A00F0B593B096
:101FD000002626A408230BAA0A2104A8FFF7FEFD69
:101FE00008272246394623A000F0ACFD384600F011
:101FF0006BFA2AA000F0A6FD04A93046FFF700FE08
:102000000646002524E00BA850F825400C3CFEF7BE
:10201000ABF8217A9DF8182021F08001914202D07E
:10202000FEF7A6F813E0FEF7A3F8D4E90901CDE91D
:10203000000123460822394621A000F083FD607A82
:10204000C00701D024A000E026A000F07BFD6D1C9D
:102050000898A842D7DC002ECED101F09BFA0146A9
:1020600024A000F06FFD13B00020F0BD74696D6511
:1020700072000000252D2A2E732020706572696F72
:1020800064696320202074696D656F757420202059
:1020900020202020666C61670A000000202D2D2D75
:1020A0002D2D2D2D2D2D2D202D2D2D2D2D2D2D2D6D
:1020B0002D2D202D2D2D2D2D2D2D2D2D2D2D0A00AD
:1020C000252D2A2E2A732030782530387820307834
:1020D000253038782000000061637469766174658A
:1020E000640A000064656163746976617465640AFA
:1020F0000000000063757272656E74207469636B12
:102100003A3078253038780A000000001FB5FEF715
:10211000BBFAFEF7A1FFFEF733FFFEF775FF1421B0
:1021200003204FF48074124ACDE90024CDE9020166
:102130000F4800230F4A10A1F03801F035F90C4880
:10214000F03801F095F9642104200D4ACDE900240E
:10215000CDE90201064800230A4A0BA1783801F0B4
:1021600023F90348783801F083F904B0002010BD4A
:102170009C010020B91A00086C6564310000000061
:102180009C020020251B00086C65643200000000E2
:1021900010B500F099FABDE81040FFF7B7BF000096
:1021A00010B518A000F0CEFC1B4C21781BA000F04D
:1021B000C9FC2078C00702D01EA000F0C3FC207824
:1021C000800702D51EA000F0BDFC2078000702D5D4
:1021D0001EA000F0B7FC2078C00602D51EA000F0BB
:1021E000B1FC2078000607D50B480C300168BDE82B
:1021F00010401CA000F0A6BCBDE810401D4800F037
:10220000A1BC00006D656D206D616E616765206623
:1022100061756C743A0A000028ED00E05343425F98
:10222000434653525F4D4653523A30782530325828
:10223000200000004941434356494F4C2000000014
:102240004441434356494F4C200000004D554E53E6
:10225000544B4552522000004D53544B455252208E
:10226000000000005343422D3E4D4D41523A25306F
:1022700038580A00B83A00082DE9F0478046002592
:1022800000782C4618B12248224F066831E0BDE89C
:10229000F0470021084600F077B806221EA13068FA
:1022A000FEF728F820BB306800F106094046FEF72B
:1022B00011F8024649464046FEF71CF8C0B925B958
:1022C0004C464846FEF706F805464946204601E0DA
:1022D000401C491C02781AB10B780BB19A42F7D016
:1022E000001BA84200DA054649460DA000F02AFC72
:1022F000083638688642D0D3002C06D02A462146BC
:102300004046BDE8F04700F003BFBDE8F08700009D
:1023100014000020180000205F5F636D645F000000
:1023200025730A0038B5044601E0491E641C207874
:102330002028FAD00928F8D031B16A462046FFF7A4
:102340007BF818B1204604E0002038BD009838BD65
:10235000401C0178202901D00029F9D10021017009
:10236000214603A000F0EEFB4FF0FF3038BD000027
:1023700025733A20636F6D6D616E64206E6F7420FB
:10238000666F756E642E0A0070B50DA000F0DAFB62
:102390001248134D04680BE0062212A12068FDF7D5
:1023A000A9FF20B9216811A0891D00F0CBFB0834DA
:1023B00028688442F0D30EA000F0C4FB002070BD5A
:1023C00052542D546872656164207368656C6C208A
:1023D000636F6D6D616E64733A0A00001400002033
:1023E000180000205F5F636D645F000025732000AC
:1023F0000A0000000120704770B5002315461C46F6
:102400001A464BE000F8012B5B1C0678202E01D009
:10241000092E01D18B42F5D3082C11D321A000F055
:1024200091FB002606E000BF55F8261025A000F01D
:1024300089FB761CA642F7D321A000F083FB2FE096
:102440008B422DD2F6B2222E03D045F82400641C14
:102450001BE0401C45F824005B1C641C08E05C2E5B
:1024600004D14678222E01D1401C5B1C401C5B1C11
:102470000678222E01D08B42F1D38B4210D200F885
:10248000012B5B1C0AE0401C5B1C0678202E03D04D
:10249000092E01D08B42F6D38B4201D28B42B4D3AA
:1024A000204670BD546F6F206D616E792061726738
:1024B000732021205765206F6E6C79205573653A23
:1024C0000A0000002573200010B5044602E003A0B6
:1024D00000F038FB641EFAD210BD00002D00000091
:1024E00030B5134943680A68134402F1080498425E
:1024F0000DD05D885DB94D68AB4208D08D689D42B6
:1025000000D188605D6845605B68851A1D518368ED
:10251000134483420BD05D88002D08D18D6885421D
:1025200000D18B60416859604068991A015130BDF3
:10253000340000202DE9F04F85B09946DDE90EA565
:10254000109CAB46630602D5DFF814C103E0DFF848
:1025500010C1ACF1110CE30601D524F00104E3072E
:1025600001D0302300E0202300260493A3070BD5DD
:10257000002A02DA2D26524206E0630701D52B26F7
:1025800002E0230700D520260023EE4622B93022A0
:102590008DF8002001230CE0B9F10A0F14D002F0ED
:1025A0000F0812091CF808800EF803805B1C002A33
:1025B000F2D1AB4200DD1D46AAEB050214F0110F6B
:1025C0004FF0200708D015E00A27B2FBF7F807FB09
:1025D0001828B2FBF7F2E5E73EB1002A05DD521EEE
:1025E00003E0884200D20770401CB2F1000CA2F157
:1025F0000102F6DC26B1884200D20670401C521E51
:10260000E40605D508E0884201D2049C0470401C11
:10261000141EA2F10102F6DC30242E466D1E9E42ED
:102620000ADD884200D20470401CF6E7884201D2DD
:10263000E55C0570401C00E074461D1EA3F101031B
:1026400007DDBBF1000FF1D103E0884200D2077033
:10265000401C131EA2F10102F7DC05B0BDE8F08FAB
:10266000DD3C00081CB514210A20CDE900014FF41F
:1026700080630022034904A000F0E9FDBDE81C408E
:1026800000F0F6BE912100086D61696E0000000047
:1026900070B54843044600F09DFA050003D0224679
:1026A000002100F029FB284670BD000070B5044CE5
:1026B000044D02E020688047241DAC42FAD370BD6F
:1026C000403D0008443D000870B5044C044D02E054
:1026D00020688047241DAC42FAD370BD443D0008F9
:1026E0004C3D000810B5FDF73FFD044A5188491CD8
:1026F0005180BDE81040FDF73BBD00007C0000208C
:1027000010B5FDF731FD0B4C6188491E09B261809F
:1027100000290ADC00216180FDF72AFD606800289D
:1027200007D0BDE8104000F097BBBDE81040FDF7B2
:102730001FBD10BD7C00002070B5002833D01A4D9D
:10274000296888422FD3696888422CD2A0F10C04F2
:102750004FF0FF31154800F024FC60884FF4F55627
:1027600010B12088B04208D011A000F0EBF9238806
:102770006288214615A000F0E5F9002060802680DF
:10278000A868844200D2AC6029686068611A401A67
:102790002969081A28612046FFF7A2FEBDE87040AB
:1027A000024800F0E3BB70BD340000205816002042
:1027B000746F2066726565206120626164206461C7
:1027C000746120626C6F636B3A0A00006D656D3A4C
:1027D000203078253038782C207573656420666C3D
:1027E00061673A2025642C206D6167696320636FFF
:1027F00064653A203078253034780A000048704704
:1028000060040020004870476014002010B5FEF7F7
:1028100045FCFEF7B5FBFEF7F7FB10484FF47A7165
:102820000068B0FBF1F0401EB0F1807F09D24FF09C
:10283000E0210B4A4861FF201070002088610720CA
:102840000861FFF733FFFFF7DDFF0446FFF7D6FF10
:102850002146BDE8104000F06FBC000010000020D1
:1028600023ED00E038B50B484FF0FF3400680168F5
:10287000C943890602D44068C4B209E00168C9436B
:10288000090702D40168406800900A2000F0A4FD06
:10289000E0B238BD9C03002070B50446FFF722FF6C
:1028A0004FF47A750EE00A2805D12B4601220D213E
:1028B0000848FEF706FB2146641C2B46012205480A
:1028C000FEF7FFFA20780028EDD1BDE87040FFF751
:1028D00017BF00009C03002070B50546041D2D485D
:1028E000016819B128468847002851D02AA0E16B19
:1028F00000F028F92CA0216A00F024F92EA0616ACA
:1029000000F020F930A0A16A00F01CF932A0E16AC1
:1029100000F018F934A0216800F014F936A06168BD
:1029200000F010F938A0A16800F00CF93AA0E168B5
:1029300000F008F93CA0216900F004F93EA06169AB
:1029400000F000F940A0A16900F0FCF842A0E169A4
:1029500000F0F8F844A0216B00F0F4F846A0616B99
:1029600000F0F0F848A0A16B00F0ECF828784007E0
:1029700008D500F057FD014647A000F0E3F8FFF747
:1029800049FA02E04CA000F0DDF8FFF749F8FEE755
:1029900070BD00009C0000207073723A20307825D2
:1029A0003038780A000000007230303A2030782544
:1029B0003038780A000000007230313A2030782533
:1029C0003038780A000000007230323A2030782522
:1029D0003038780A000000007230333A2030782511
:1029E0003038780A000000007230343A2030782500
:1029F0003038780A000000007230353A20307825EF
:102A00003038780A000000007230363A20307825DD
:102A10003038780A000000007230373A20307825CC
:102A20003038780A000000007230383A20307825BB
:102A30003038780A000000007230393A20307825AA
:102A40003038780A000000007231303A20307825A2
:102A50003038780A000000007231313A2030782591
:102A60003038780A000000007231323A2030782580
:102A70003038780A00000000206C723A2030782547
:102A80003038780A000000002070633A2030782542
:102A90003038780A00000000686172642066617551
:102AA0006C74206F6E207468726561643A202573BF
:102AB0000D0A0D0A000000006861726420666175ED
:102AC0006C74206F6E2068616E646C65720D0A0D07
:102AD0000A00000070B50446121D22F00700002213
:102AE000094D403840F82250521C102AFAD3016296
:102AF0000021416281624FF0807200F13005C263B3
:102B0000C16285E81A0070BDEFBEADDE10B5FDF7FD
:102B10002BFB044A1178491C1170BDE81040FDF7E9
:102B200027BB00003000002010B5FDF71DFB044A54
:102B30001178491E1170BDE81040FDF719BB000067
:102B4000300000200FB47F2110B503AB0448029A77
:102B500000F00AFE0248FFF79FFE10BC5DF814FB70
:102B6000D81500200268516002680A600160486060
:102B700070470268516002680A60016048607047EF
:102B80000268516002680A600160486070474268EC
:102B9000116042684A604160086070470246002147
:102BA00000E0491C00689042FBD108467047D0E91C
:102BB00000124A60D0E90012116040600060704766
:102BC000D0E900124A60D0E9001211604060006054
:102BD000704700002DE9F047002807D0374CC01C93
:102BE00020F00306E068864202D90020BDE8F087A5
:102BF0000C2E00D20C264FF0FF31314800F0D1F9F5
:102C0000D4F808C02168E768ACEB0100BA1B4FE0BC
:102C10000D186B88E3BB6B681B1A0C3BB34246D3A1
:102C20006A6806F11803121A0C3A4FF001094FF4C2
:102C3000F55A9A422DD383190C33CA184FF0000865
:102C4000A2F800A0A2F80280D5F80480C2E90180B1
:102C50006B60A5F8029050680C37B84202D001F1C1
:102C600008028350206930440C302061626982423E
:102C700000D26061A5F800A0654512D1A068428825
:102C80007AB1626890420CD040680844A060F6E7D0
:102C90000DE0A5F8029068686A1A801A226910444B
:102CA000E3E7074800F062F905F10C009EE7686869
:102CB0008242ADD8024800F059F996E7340000206E
:102CC0005816002010B50346994211D28C189C4228
:102CD0000ED9811804E000BF14F8013D01F8013D50
:102CE000521EF9D210BD00BF11F8014B03F8014B81
:102CF000521EF9D210BD000010B50346CCB2042A12
:102D00001AD3810718D1194644EA042343EA03433E
:102D100006E008C1103A08C141F8083B41F8043CFC
:102D2000102AF6D201E008C1121F042AFBD20B467A
:102D300002E000BF03F8014B521EFBD210BD2DE98B
:102D4000F0410F46064600F045F80546C068FFF71B
:102D500041FF040019D00021EA68FFF7CDFF267279
:102D60000020607208223946204600F0D1F9FDF7B4
:102D7000FBF9064604F10C01281DFFF7F3FE30466F
:102D8000FDF7F6F92046BDE8F0810020FBE770B5BD
:102D9000044600202072FDF7E7F9054604F10C0017
:102DA000FFF705FF2846FDF7E3F92046BDE8704030
:102DB000FFF7C2BC70B5044600202072FDF7D4F9BD
:102DC000054604F10C00FFF7F2FE2846BDE870400E
:102DD000FDF7CEB9074A002102EB01131B788342AD
:102DE00002D102EB01107047491C0329F4DB0020DB
:102DF000704700004C0000202DE9F04104461646C3
:102E00000D460846FFF7E6FF0746FFF76BFC381D47
:102E1000796800E009688142FCD1FFF771FC45F058
:102E20008000207208223146204600F071F9FDF73B
:102E30009BF9054604F10C01381DFFF793FE284667
:102E4000BDE8F041FDF794B9007A000601D50120F4
:102E5000704700207047000070B5FDF785F9114CF0
:102E600005466088B0B9A068FEF7AAFA0E49401E70
:102E7000626851F83010143991420BD020700B4821
:102E80006160007801F11C01002802F11C0006D0ED
:102E9000FDF771F92846BDE87040FDF769B9FDF707
:102EA0006AF9F7E77C000020781600203000002047
:102EB00010B50446FDF758F9024694F834000E495F
:102EC00020F00F00401C84F8340094F8350001EB2A
:102ED000C00104F114004B6818604B68A36148609E
:102EE00006486161A16B836819438160BDE81040A9
:102EF0001046FDF73DB90000781600207C00002048
:102F000010B50446FDF730F904F11401D1E90023AE
:102F10005360D1E900231A60A161616194F8352002
:102F2000074951F8323001EBC2018B4204D1054907
:102F3000A36B8A689A438A60BDE81040FDF718B910
:102F4000781600207C0000202DE9F04116460A4644
:102F50001F4605460221FFF74FFF05F11404AC613F
:102F60006C61AE836F720020BDE8F08170B50446DD
:102F7000FDF7FAF80546606904F11401884208D0AB
:102F8000143800F030FA2846FDF7F2F8FFF764FF36
:102F900005E0A08B401CA0832846FDF7E9F800203F
:102FA00070BD2DE9F3410446FDF7DEF80746A08B1E
:102FB00028B1401EA0833846FDF7DAF846E00198B4
:102FC00070B100F02FFA06460020306304F11405BA
:102FD000647A304600F062FAF4B1012C21D106E0A7
:102FE0003846FDF7C5F86FF00100BDE8FC812C689C
:102FF0000EE096F8351094F82120A4F114009142C7
:1030000005D206F114011430FFF7C1FD02E0246877
:10301000AC42EED1AC4204D106F114012846FFF7D0
:10302000B6FD0198002809DD06F1440001AA00213F
:10303000044600F0FFFA204600F038FB3846FDF762
:1030400097F8FFF709FF306B0028CED10020CCE7BE
:1030500008B509A0FFF776FD0AA0FFF773FD12A0DF
:10306000032300900122194612A0FFF76BFDBDE873
:10307000084018A0FFF766BD0A205C207C202F0ABC
:10308000000000002D205254202D2020202020540C
:103090006872656164204F7065726174696E672043
:1030A00053797374656D0A004D6172203237203296
:1030B00030323000202F207C205C20202020202552
:1030C000642E25642E2564206275696C6420257346
:1030D0000A0000002032303036202D2032303139C5
:1030E00020436F7079726967687420627920727406
:1030F0002D746872656164207465616D0A0000005A
:10310000014600E0491C0A78002AFBD1081A7047E2
:1031100010B5002A07D0034611F8014B03F8014B04
:103120002CB1521EF8D110BD03F8011B00E00021A4
:10313000521EF9D110BD00000A46C11C10B522F084
:10314000030321F00301182B20D9A3F118048C42AA
:103150001CD3114C581A18382160E0604FF4F55216
:103160000A8000230C30C1E901034B804B681944ED
:1031700061600A8001224A8048608860002307A1BC
:103180000848FFF7E1FE2068A06010BD0146BDE8D9
:10319000104005A0FFF7D6BC3400002068656170C0
:1031A00000000000581600206D656D20696E69747E
:1031B0002C206572726F7220626567696E2061648F
:1031C000647265737320307825782C20616E6420DA
:1031D000656E64206164647265737320307825784D
:1031E0000A00000010B50A4900230A4C4B8018461B
:1031F00004EBC002401C526012602028F8DB1F2044
:10320000087003484B600C308B604060006010BD5C
:103210007C0000207816002010B5074CA068FEF74F
:10322000CFF80649401E51F8300014386060BDE800
:1032300010401C30FCF7CDBF7C0000207816002029
:1032400001484060006070479400002070472DE9FD
:10325000FF478946DDE90C76824601461D469046C9
:103260000120FFF76CFD041E0DD02846FFF7B2FCCD
:1032700060B103968DE8A10043464A465146204678
:10328000FEF728F9204604B0BDE8F0872046FFF796
:103290007EFD0020F7E7000070B513480468FCF7D6
:1032A00063FF05462046FFF72BFE042084F8340018
:1032B00004F1440000F0D6F92046FFF7C5FD0128CF
:1032C00001D1206F58B104F114010848FFF751FCF7
:1032D0002846FCF74DFFBDE87040FFF7BDBD204616
:1032E000FFF768FDF4E70000800000208800002060
:1032F00000F002F8FCE7000070B527E0FCF734FFAF
:103300000546FEF78FF858B318480168A1F1140478
:10331000D1E900024260D1E9000210604960096011
:10332000FFF7E0F9216F09B1204688472046FFF7F3
:103330008BFD01280FD0FFF7E3F92846FCF718FFB3
:10334000A06AFFF7F9F92046FFF721FDFEF76AF8BA
:103350000028D3D170BD2046FFF72CFDFFF7D0F930
:103360002846BDE87040FCF703BF0000880000203D
:103370001FB5202308481F22D9008DE80F00002325
:10338000064A07A1783800F00FF804B00248BDE8FB
:103390001040783800F06CB8D8140020F1320008E2
:1033A0007469646C650000002DE9FF5F92460EAA07
:1033B0000C4692E8E0010A46994683460121FFF750
:1033C0001BFD8DE8E0014B46524621465846FEF76C
:1033D00081F804B0BDE8F09F10B500F0C1F8BDE879
:1033E000104000F025B870B5044690F8340000F0A5
:1033F0000F00022802D04FF0FF3070BDFCF7B4FE82
:10340000054604F11400FFF7DBFB04F1440000F073
:1034100093F92846FCF7ACFE2046FFF749FD002053
:1034200070BD000001480068704700008000002067
:10343000F1B5FCF799FE05460C480468204600F0FB
:103440002DF804F144006A460021064600F0F2F827
:10345000304600F02BF92846FCF78AFEFFF7FCFC0B
:10346000206B801C00D120630020F8BD800000206C
:1034700010B590F83610012280F835108A400221EC
:10348000826380F83410FFF7AEFF0348006808B18C
:10349000FFF7E2FC002010BD8000002070B504465C
:1034A00090F8340000F00F00012802D04FF0FF30F8
:1034B00070BDFCF759FE054694F8340020F00F006B
:1034C000801C84F834002046FFF71AFD04F1440004
:1034D00000F032F92846FCF74BFE002070BD10B515
:1034E00004466FF00100206304F11400FFF768FB4D
:1034F0002046FFF7DDFCBDE81040FFF7ADBC000043
:1035000070B5FCF731FE06461348046894F83400A1
:1035100000F00F00012819D1D4E90501884215D027
:1035200004F114000546FFF74BFB94F835000B49F6
:1035300001EBC00041680D6041686960456028602A
:103540003046FCF715FEFFF787FC02E03046FCF73B
:103550000FFE002070BD00008000002078160020C3
:10356000002802DA4FF0FF3070474FF47A7190FB79
:10357000F1F290FBF1F301FB130000EB40034A432F
:10358000C3EBC0104B1E03EBC00090FBF1F01044E6
:103590007047000001480068704700002C000020C0
:1035A000094810B50168491C0160FFF73BFF016C39
:1035B000491E016403D1C16B0164FFF7A1FFBDE89F
:1035C000104000F003B800002C0000202DE9F0416D
:1035D000FFF7E0FF0646FCF7C7FD0746144D1EE067
:1035E00060696FF00041301A143C88421AD22046BC
:1035F000FDF7BEFFD4E907108847FFF7CBFF06466B
:10360000607A810708D5C10706D020F001006072FA
:10361000204600F04BF802E020F0010060722C68B8
:10362000AC42DDD13846BDE8F041FCF7A1BD000059
:103630009400002049B1012904D0022908D00329AF
:103640000ED109E0406A10600AE01168416207E0AB
:10365000417A21F0020102E0417A41F00201417217
:103660000020704770B50546FCF77EFD04462846ED
:10367000FDF77EFF2046FCF77BFD2846FFF79AFB0F
:10368000002070BD2DE9F8439046DDE908450A4663
:103690001F4606460A21FFF7AFFB23463A4641463E
:1036A00030460095FDF756FFBDE8F883F8B50446AF
:1036B000FCF75AFD05462046FDF75AFF607A20F0D8
:1036C000010060722846FCF753FDFFF763FF616A53
:1036D0000844A062FCF748FD0546164A0020009207
:1036E00002EBC002694653686FF0004C5DF8202081
:1036F0000BE01268A2EBC0067769A66AB74202D057
:10370000BE1B664503D341F820209A42F1D10948F7
:10371000001F0168491C016004F114010098FFF7C3
:103720002FFA607A40F0010060722846FCF720FD15
:103730000020F8BD9400002070B50446407AC00710
:103740000ED0FCF711FD05462046FDF711FF284677
:10375000FCF70EFD607A20F001006072002070BD61
:103760004FF0FF3070BD00002DE9FF4F8946044641
:1037700000EB090783B080464FF0FF3A4FF0200B73
:10378000A74202D25746C8F1FF3907E1252803D0E6
:10379000BC4200D2207081E000260599491C0591A9
:1037A00008782D2811D02B2812D0202813D02328B8
:1037B00014D0302815D00A785546303A0A2A13D248
:1037C00005A800F02CF905461AE046F01006E4E7DB
:1037D00046F00406E1E746F00806DEE746F020067C
:1037E000DBE746F00106D8E72A2809D10698491CEC
:1037F000059120C80690002D02DA6D4246F01006B1
:10380000CDF800A0059801782E2918D1401C05900C
:103810000178A1F130020A2A04D205A800F0FFF8CD
:10382000009008E02A2908D1401C0590069802C89B
:10383000069000910846002801DA002000900598C3
:1038400000210278682A01D06C2A02D1401C11465E
:10385000059000780A236F287DD00CDC63281FD0E8
:1038600004DC25287BD058280DD17EE0642801D0C7
:10387000692808D17DE070285ED073282CD0752887
:1038800079D0782873D0BC4201D2252020700598C9
:10389000641C0178D1B3BC4200D22170641C7AE070
:1038A000F00608D458466D1E002D04DDBC4200D23F
:1038B0002070641CF7E70699BC4211F8040B0691CE
:1038C00000D22070584602E0BC4200D22070641C36
:1038D0006D1E002DF8DC5EE0069808C8069003B95E
:1038E0003EA31846FFF70CFC0099002902DD884230
:1038F00000DD0846F1060AD459462A466D1E82426A
:1039000005DDBC4200D22170641CF6E752E00021C4
:1039100006E0BC4201D21A782270491C5B1C641C70
:103920008142F6DB5A4629466D1E814233DDBC4298
:1039300000D22270641CF6E7681C02D1082546F00C
:10394000010600980296CDE90050069810233946EA
:1039500004C806901BE006E001E00CE007E0BC4272
:103960009CD2252016E7082305E046F040061023E8
:1039700001E046F002066C2901D068291DD00698A6
:1039800004C8069000983946CDE9005002962046BA
:10399000FEF7D0FD04460598401C05900598007878
:1039A00000287FF4F3AEB9F1000F11D0BC420DD264
:1039B00020700DE0401E0590EDE7069830F8041BDE
:1039C00006908AB2B007DDD512B2DBE707F8010C2A
:1039D00007B0A4EB0800BDE8F08F0000284E554C5E
:1039E0004C290000002070470020704700207047DD
:1039F0000020704710B5FCF7B7FBFEF707FFFFF795
:103A000027FBFFF71DFCFFF7EDFBFEF72BFEFFF793
:103A10001DFCFFF7ADFCFFF7FFFB002010BD10B54C
:103A2000014600206FF02F0307E0541C0C60127851
:103A300000EB800003EB400010440A681478303C2F
:103A40000A2CF2D310BD000010B518A0FFF77AF8C9
:103A50001A4C21881AA0FFF775F82088C00702D0F9
:103A60001DA0FFF76FF82088800702D51DA0FFF783
:103A700069F82088400702D51DA0FFF763F8208869
:103A8000000702D51CA0FFF75DF82088C00502D50D
:103A90001BA0FFF757F82088800502D51BA0FFF771
:103AA00051F8BDE8104004A0FFF74CB8757361678A
:103AB00065206661756C743A0A0000002AED00E02A
:103AC0005343425F434653525F554653523A307810
:103AD0002530325820000000554E444546494E538B
:103AE00054522000494E5653544154452000000082
:103AF000494E5650432000004E4F435020000000D6
:103B0000554E414C49474E454420000044495642D9
:103B1000595A45524F20000010B5FFF799FA00207E
:103B200010BD0000000000000000010203040607B1
:103B30000809000000000102030468656C6C6F0056
:103B400076657273696F6E005F5F636D645F766543
:103B50007273696F6E006C6973745F74687265610B
:103B600064005F5F636D645F6C6973745F74687237
:103B7000656164006C6973745F73656D005F5F639A
:103B80006D645F6C6973745F73656D006C697374E9
:103B90005F74696D6572005F5F636D645F6C69730C
:103BA000745F74696D6572006C697374005F5F6344
:103BB0006D645F68656C70005F5F636D645F7073F8
:103BC000005F5F636D645F66726565000000010001
:103BD00002000100030001000200010004000100D6
:103BE00002000100030001000200010005000100C5
:103BF00002000100030001000200010004000100B6
:103C000002000100030001000200010006000100A3
:103C10000200010003000100020001000400010095
:103C20000200010003000100020001000500010084
:103C30000200010003000100020001000400010075
:103C40000200010003000100020001000700010062
:103C50000200010003000100020001000400010055
:103C60000200010003000100020001000500010044
:103C70000200010003000100020001000400010035
:103C80000200010003000100020001000600010023
:103C90000200010003000100020001000400010015
:103CA0000200010003000100020001000500010004
:103CB00002000100030001000200010004000100F5
:103CC0000200010003000100020001003031323324
:103CD00034353637383961626364656600303132B5
:103CE00033343536373839414243444546006C69F0
:103CF00073745F6D656D0000252D2A2E7320707220
:103D00006920207374617475732020202020207333
:103D1000702020202020737461636B2073697A65A2
:103D2000206D61782075736564206C6566742074FD
:103D300069636B20206572726F720A00F1390008A6
:103D4000E9390008E539000801170008ED390008D5
:103D50003A3B0008991A0008403B0008193B00084C
:103D6000483B0008193B0008563B0008151E000898
:103D7000623B0008151E0008743B0008D51C0008B3
:103D80007D3B0008D51C00088C3B0008CD1F0008B7
:103D9000973B0008CD1F0008A83B0008891B0008BE
:103DA000AD3B000889230008B83B000877160008DF
:103DB000C13B00086D160008EE3C0008691C0008B5
:103DC000E03D000800000020AC00000004140008E2
:103DD0008C3E0008AC000020CC1A0000141400082F
:103DE00000000000010000001000000000000000C2
:103DF0000024F400000000000000000000000000AB
:103E000000000000000000000000000000000000B2
:103E100000000000000000000000000000000000A2
:103E20000000000000000000000000000100000091
:103E30005000002050000020780000000200000028
:103E40006000002060000020200000000A00000048
:103E500070000020700000202C0000000000000016
:103E60000000000000000000000000000000000052
:103E70000000000000000000000000000000000042
:0C3E800000000000000000000000000036
:0400000508000131BD
:00000001FF
